{
  "contracts/PriceConsumerV3.sol": {
    "PriceConsumerV3": {
      "abi": [
        {
          "inputs": [],
          "stateMutability": "nonpayable",
          "type": "constructor"
        },
        {
          "inputs": [],
          "name": "getChainlinkDataFeedLatestAnswer",
          "outputs": [
            {
              "internalType": "int256",
              "name": "",
              "type": "int256"
            }
          ],
          "stateMutability": "view",
          "type": "function"
        }
      ],
      "evm": {
        "bytecode": {
          "linkReferences": {},
          "object": "6080604052348015600f57600080fd5b50600080546001600160a01b031916731b44f3514812d835eb1bdb0acb33d3fa3351ee4317905561016a806100456000396000f3fe608060405234801561001057600080fd5b506004361061002b5760003560e01c8063bea4dfb514610030575b600080fd5b61003861004a565b60405190815260200160405180910390f35b6000805460408051633fabe5a360e21b8152905183926001600160a01b03169163feaf968c9160048083019260a09291908290030181865afa158015610094573d6000803e3d6000fd5b505050506040513d601f19601f820116820180604052508101906100b891906100e2565b509195945050505050565b805169ffffffffffffffffffff811681146100dd57600080fd5b919050565b600080600080600060a086880312156100fa57600080fd5b610103866100c3565b60208701516040880151606089015192975090955093509150610128608087016100c3565b9050929550929590935056fea2646970667358221220507a2e46f2ae9a8b401c200530ba863aa3c723de699cc339c8c59f649e622e6064736f6c634300081c0033",
          "opcodes": "PUSH1 0x80 PUSH1 0x40 MSTORE CALLVALUE DUP1 ISZERO PUSH1 0xF JUMPI PUSH1 0x0 DUP1 REVERT JUMPDEST POP PUSH1 0x0 DUP1 SLOAD PUSH1 0x1 PUSH1 0x1 PUSH1 0xA0 SHL SUB NOT AND PUSH20 0x1B44F3514812D835EB1BDB0ACB33D3FA3351EE43 OR SWAP1 SSTORE PUSH2 0x16A DUP1 PUSH2 0x45 PUSH1 0x0 CODECOPY PUSH1 0x0 RETURN INVALID PUSH1 0x80 PUSH1 0x40 MSTORE CALLVALUE DUP1 ISZERO PUSH2 0x10 JUMPI PUSH1 0x0 DUP1 REVERT JUMPDEST POP PUSH1 0x4 CALLDATASIZE LT PUSH2 0x2B JUMPI PUSH1 0x0 CALLDATALOAD PUSH1 0xE0 SHR DUP1 PUSH4 0xBEA4DFB5 EQ PUSH2 0x30 JUMPI JUMPDEST PUSH1 0x0 DUP1 REVERT JUMPDEST PUSH2 0x38 PUSH2 0x4A JUMP JUMPDEST PUSH1 0x40 MLOAD SWAP1 DUP2 MSTORE PUSH1 0x20 ADD PUSH1 0x40 MLOAD DUP1 SWAP2 SUB SWAP1 RETURN JUMPDEST PUSH1 0x0 DUP1 SLOAD PUSH1 0x40 DUP1 MLOAD PUSH4 0x3FABE5A3 PUSH1 0xE2 SHL DUP2 MSTORE SWAP1 MLOAD DUP4 SWAP3 PUSH1 0x1 PUSH1 0x1 PUSH1 0xA0 SHL SUB AND SWAP2 PUSH4 0xFEAF968C SWAP2 PUSH1 0x4 DUP1 DUP4 ADD SWAP3 PUSH1 0xA0 SWAP3 SWAP2 SWAP1 DUP3 SWAP1 SUB ADD DUP2 DUP7 GAS STATICCALL ISZERO DUP1 ISZERO PUSH2 0x94 JUMPI RETURNDATASIZE PUSH1 0x0 DUP1 RETURNDATACOPY RETURNDATASIZE PUSH1 0x0 REVERT JUMPDEST POP POP POP POP PUSH1 0x40 MLOAD RETURNDATASIZE PUSH1 0x1F NOT PUSH1 0x1F DUP3 ADD AND DUP3 ADD DUP1 PUSH1 0x40 MSTORE POP DUP2 ADD SWAP1 PUSH2 0xB8 SWAP2 SWAP1 PUSH2 0xE2 JUMP JUMPDEST POP SWAP2 SWAP6 SWAP5 POP POP POP POP POP JUMP JUMPDEST DUP1 MLOAD PUSH10 0xFFFFFFFFFFFFFFFFFFFF DUP2 AND DUP2 EQ PUSH2 0xDD JUMPI PUSH1 0x0 DUP1 REVERT JUMPDEST SWAP2 SWAP1 POP JUMP JUMPDEST PUSH1 0x0 DUP1 PUSH1 0x0 DUP1 PUSH1 0x0 PUSH1 0xA0 DUP7 DUP9 SUB SLT ISZERO PUSH2 0xFA JUMPI PUSH1 0x0 DUP1 REVERT JUMPDEST PUSH2 0x103 DUP7 PUSH2 0xC3 JUMP JUMPDEST PUSH1 0x20 DUP8 ADD MLOAD PUSH1 0x40 DUP9 ADD MLOAD PUSH1 0x60 DUP10 ADD MLOAD SWAP3 SWAP8 POP SWAP1 SWAP6 POP SWAP4 POP SWAP2 POP PUSH2 0x128 PUSH1 0x80 DUP8 ADD PUSH2 0xC3 JUMP JUMPDEST SWAP1 POP SWAP3 SWAP6 POP SWAP3 SWAP6 SWAP1 SWAP4 POP JUMP INVALID LOG2 PUSH5 0x6970667358 0x22 SLT KECCAK256 POP PUSH27 0x2E46F2AE9A8B401C200530BA863AA3C723DE699CC339C8C59F649E PUSH3 0x2E6064 PUSH20 0x6F6C634300081C00330000000000000000000000 "
        },
        "methodIdentifiers": {
          "getChainlinkDataFeedLatestAnswer()": "bea4dfb5"
        }
      }
    }
  }
}